{
  "address": "0xc0a2ee534F004a4ec2EFA541489acBD5ff4bBA99",
  "abi": [
    {
      "inputs": [
        {
          "internalType": "address",
          "name": "_bank",
          "type": "address"
        },
        {
          "internalType": "address",
          "name": "_relay",
          "type": "address"
        },
        {
          "internalType": "address",
          "name": "_ecdsaWalletRegistry",
          "type": "address"
        },
        {
          "internalType": "address",
          "name": "_reimbursementPool",
          "type": "address"
        }
      ],
      "stateMutability": "nonpayable",
      "type": "constructor"
    },
    {
      "inputs": [
        {
          "internalType": "bytes32",
          "name": "walletID",
          "type": "bytes32"
        },
        {
          "internalType": "bytes32",
          "name": "publicKeyX",
          "type": "bytes32"
        },
        {
          "internalType": "bytes32",
          "name": "publicKeyY",
          "type": "bytes32"
        }
      ],
      "name": "__ecdsaWalletCreatedCallback",
      "outputs": [],
      "stateMutability": "nonpayable",
      "type": "function"
    },
    {
      "inputs": [
        {
          "internalType": "bytes32",
          "name": "walletID",
          "type": "bytes32"
        },
        {
          "internalType": "bytes32",
          "name": "publicKeyX",
          "type": "bytes32"
        },
        {
          "internalType": "bytes32",
          "name": "publicKeyY",
          "type": "bytes32"
        }
      ],
      "name": "__ecdsaWalletHeartbeatFailedCallback",
      "outputs": [],
      "stateMutability": "nonpayable",
      "type": "function"
    },
    {
      "inputs": [],
      "name": "bank",
      "outputs": [
        {
          "internalType": "address",
          "name": "",
          "type": "address"
        }
      ],
      "stateMutability": "view",
      "type": "function"
    },
    {
      "inputs": [],
      "name": "contractReferences",
      "outputs": [
        {
          "internalType": "address",
          "name": "_bank",
          "type": "address"
        },
        {
          "internalType": "address",
          "name": "_relay",
          "type": "address"
        },
        {
          "internalType": "address",
          "name": "_ecdsaWalletRegistry",
          "type": "address"
        },
        {
          "internalType": "address",
          "name": "_reimbursementPool",
          "type": "address"
        }
      ],
      "stateMutability": "view",
      "type": "function"
    },
    {
      "inputs": [],
      "name": "devRequestNewWallet",
      "outputs": [],
      "stateMutability": "nonpayable",
      "type": "function"
    },
    {
      "inputs": [],
      "name": "ecdsaWalletRegistry",
      "outputs": [
        {
          "internalType": "address",
          "name": "",
          "type": "address"
        }
      ],
      "stateMutability": "view",
      "type": "function"
    },
    {
      "inputs": [],
      "name": "getRedemptionWatchtower",
      "outputs": [
        {
          "internalType": "address",
          "name": "",
          "type": "address"
        }
      ],
      "stateMutability": "pure",
      "type": "function"
    },
    {
      "inputs": [],
      "name": "reimbursementPool",
      "outputs": [
        {
          "internalType": "address",
          "name": "",
          "type": "address"
        }
      ],
      "stateMutability": "view",
      "type": "function"
    },
    {
      "inputs": [],
      "name": "relay",
      "outputs": [
        {
          "internalType": "address",
          "name": "",
          "type": "address"
        }
      ],
      "stateMutability": "view",
      "type": "function"
    },
    {
      "inputs": [],
      "name": "requestNewWallet",
      "outputs": [],
      "stateMutability": "nonpayable",
      "type": "function"
    }
  ],
  "transactionHash": "0xf99faa5e745aa6bc3b4d5b2202fbe0ccb5903cc1dd304e38325e1cf63d905fc8",
  "args": [
    "0x0000000000000000000000000000000000000000",
    "0x0000000000000000000000000000000000000000",
    "0xd49141e044801DEE237993deDf9684D59fafE2e6",
    "0x28505E15C06eDA37863a4ebf48828B991C3e9466"
  ],
  "numDeployments": 1,
  "solcInputHash": "42bd359306acf47b2d9d0353f4ff4cc4",
  "bytecode": "0x608060405234801561001057600080fd5b5060405161045038038061045083398101604081905261002f9161009e565b600080546001600160a01b039586166001600160a01b03199182161790915560018054948616948216949094179093556002805492851692841692909217909155600380549190931691161790556100f2565b80516001600160a01b038116811461009957600080fd5b919050565b600080600080608085870312156100b457600080fd5b6100bd85610082565b93506100cb60208601610082565b92506100d960408601610082565b91506100e760608601610082565b905092959194509250565b61034f806101016000396000f3fe608060405234801561001057600080fd5b506004361061009d5760003560e01c8063a8fa0f4211610066578063a8fa0f42146100d2578063a9de2f3a14610109578063b4fe6be114610149578063b59589d114610151578063c09975cd1461016457600080fd5b8062ae616a146100a25780633dce9812146100d25780635f3281ca146100e757806372cc8c6d146100ee57806376cdb03b146100f6575b600080fd5b6002546100b5906001600160a01b031681565b6040516001600160a01b0390911681526020015b60405180910390f35b6100e56100e03660046102be565b505050565b005b60006100b5565b6100e5610177565b6000546100b5906001600160a01b031681565b600054600154600254600354604080516001600160a01b0395861681529385166020850152918416918301919091529190911660608201526080016100c9565b6100e56101e1565b6001546100b5906001600160a01b031681565b6003546100b5906001600160a01b031681565b600260009054906101000a90046001600160a01b03166001600160a01b03166372cc8c6d6040518163ffffffff1660e01b8152600401600060405180830381600087803b1580156101c757600080fd5b505af11580156101db573d6000803e3d6000fd5b50505050565b60025460408051600481526024810182526020810180516001600160e01b03166372cc8c6d60e01b17905290516000926001600160a01b031691610224916102ea565b6000604051808303816000865af19150503d8060008114610261576040519150601f19603f3d011682016040523d82523d6000602084013e610266565b606091505b50509050806102bb5760405162461bcd60e51b815260206004820152601c60248201527f726571756573744e657757616c6c65742063616c6c206661696c656400000000604482015260640160405180910390fd5b50565b6000806000606084860312156102d357600080fd5b505081359360208301359350604090920135919050565b6000825160005b8181101561030b57602081860181015185830152016102f1565b50600092019182525091905056fea26469706673582212209110d39da18746d4a640f59338b793a5451addda0437cf201adb8efc8246f72864736f6c63430008110033",
  "devdoc": {
    "kind": "dev",
    "methods": {
      "__ecdsaWalletCreatedCallback(bytes32,bytes32,bytes32)": {
        "details": "Required by IWalletOwner interface for WalletRegistry",
        "params": {
          "publicKeyX": "Wallet's public key's X coordinate",
          "publicKeyY": "Wallet's public key's Y coordinate",
          "walletID": "Wallet's unique identifier"
        }
      },
      "__ecdsaWalletHeartbeatFailedCallback(bytes32,bytes32,bytes32)": {
        "details": "Required by IWalletOwner interface for WalletRegistry",
        "params": {
          "publicKeyX": "Wallet's public key's X coordinate",
          "publicKeyY": "Wallet's public key's Y coordinate",
          "walletID": "Wallet's unique identifier"
        }
      },
      "devRequestNewWallet()": {
        "details": "This bypasses the walletOwner check - USE ONLY IN DEVELOPMENT      This function calls WalletRegistry.requestNewWallet() directly,      but since it's called from Bridge (the walletOwner), it will succeed"
      },
      "requestNewWallet()": {
        "details": "This is a convenience function for local development      In production, only the walletOwner should be able to call this"
      }
    },
    "title": "BridgeStub",
    "version": 1
  },
  "userdoc": {
    "kind": "user",
    "methods": {
      "__ecdsaWalletCreatedCallback(bytes32,bytes32,bytes32)": {
        "notice": "Callback function executed when a new wallet is created"
      },
      "__ecdsaWalletHeartbeatFailedCallback(bytes32,bytes32,bytes32)": {
        "notice": "Callback function executed when wallet heartbeat fails"
      },
      "devRequestNewWallet()": {
        "notice": "For development: Allows anyone to trigger requestNewWallet"
      },
      "requestNewWallet()": {
        "notice": "For development: Allows calling requestNewWallet on WalletRegistry"
      }
    },
    "notice": "Minimal stub implementation of Bridge contract for local development",
    "version": 1
  },
  "storageLayout": {
    "storage": [
      {
        "astId": 4,
        "contract": "contracts/BridgeStub.sol:BridgeStub",
        "label": "bank",
        "offset": 0,
        "slot": "0",
        "type": "t_address"
      },
      {
        "astId": 6,
        "contract": "contracts/BridgeStub.sol:BridgeStub",
        "label": "relay",
        "offset": 0,
        "slot": "1",
        "type": "t_address"
      },
      {
        "astId": 8,
        "contract": "contracts/BridgeStub.sol:BridgeStub",
        "label": "ecdsaWalletRegistry",
        "offset": 0,
        "slot": "2",
        "type": "t_address"
      },
      {
        "astId": 10,
        "contract": "contracts/BridgeStub.sol:BridgeStub",
        "label": "reimbursementPool",
        "offset": 0,
        "slot": "3",
        "type": "t_address"
      }
    ],
    "types": {
      "t_address": {
        "encoding": "inplace",
        "label": "address",
        "numberOfBytes": "20"
      }
    }
  }
}