{
  "address": "0x587920b0a8B4d0C756Ade69Cfa3F5432624010E1",
  "abi": [
    {
      "inputs": [
        {
          "internalType": "address",
          "name": "_bridge",
          "type": "address"
        }
      ],
      "stateMutability": "nonpayable",
      "type": "constructor"
    },
    {
      "inputs": [],
      "name": "DEPOSIT_MIN_AGE",
      "outputs": [
        {
          "internalType": "uint32",
          "name": "",
          "type": "uint32"
        }
      ],
      "stateMutability": "view",
      "type": "function"
    },
    {
      "inputs": [],
      "name": "DEPOSIT_REFUND_SAFETY_MARGIN",
      "outputs": [
        {
          "internalType": "uint32",
          "name": "",
          "type": "uint32"
        }
      ],
      "stateMutability": "view",
      "type": "function"
    },
    {
      "inputs": [],
      "name": "DEPOSIT_SWEEP_MAX_SIZE",
      "outputs": [
        {
          "internalType": "uint16",
          "name": "",
          "type": "uint16"
        }
      ],
      "stateMutability": "view",
      "type": "function"
    },
    {
      "inputs": [],
      "name": "REDEMPTION_MAX_SIZE",
      "outputs": [
        {
          "internalType": "uint16",
          "name": "",
          "type": "uint16"
        }
      ],
      "stateMutability": "view",
      "type": "function"
    },
    {
      "inputs": [],
      "name": "REDEMPTION_REQUEST_MIN_AGE",
      "outputs": [
        {
          "internalType": "uint32",
          "name": "",
          "type": "uint32"
        }
      ],
      "stateMutability": "view",
      "type": "function"
    },
    {
      "inputs": [],
      "name": "REDEMPTION_REQUEST_TIMEOUT_SAFETY_MARGIN",
      "outputs": [
        {
          "internalType": "uint32",
          "name": "",
          "type": "uint32"
        }
      ],
      "stateMutability": "view",
      "type": "function"
    },
    {
      "inputs": [],
      "name": "bridge",
      "outputs": [
        {
          "internalType": "contract BridgeStub",
          "name": "",
          "type": "address"
        }
      ],
      "stateMutability": "view",
      "type": "function"
    },
    {
      "inputs": [
        {
          "internalType": "bytes20",
          "name": "walletPubKeyHash",
          "type": "bytes20"
        },
        {
          "internalType": "bytes20[]",
          "name": "depositsPubKeys",
          "type": "bytes20[]"
        },
        {
          "internalType": "uint256",
          "name": "sweepTxFee",
          "type": "uint256"
        },
        {
          "internalType": "uint16",
          "name": "depositsRevealBlocks",
          "type": "uint16"
        },
        {
          "internalType": "bytes",
          "name": "depositsExtraInfo",
          "type": "bytes"
        }
      ],
      "name": "validateDepositSweepProposal",
      "outputs": [
        {
          "internalType": "bool",
          "name": "",
          "type": "bool"
        }
      ],
      "stateMutability": "view",
      "type": "function"
    },
    {
      "inputs": [
        {
          "internalType": "bytes20",
          "name": "walletPubKeyHash",
          "type": "bytes20"
        },
        {
          "internalType": "bytes32",
          "name": "heartbeatTxHash",
          "type": "bytes32"
        },
        {
          "internalType": "uint256",
          "name": "heartbeatTxFee",
          "type": "uint256"
        }
      ],
      "name": "validateHeartbeatProposal",
      "outputs": [
        {
          "internalType": "bool",
          "name": "",
          "type": "bool"
        }
      ],
      "stateMutability": "view",
      "type": "function"
    },
    {
      "inputs": [
        {
          "internalType": "bytes20",
          "name": "walletPubKeyHash",
          "type": "bytes20"
        },
        {
          "internalType": "bytes32",
          "name": "movingFundsTxHash",
          "type": "bytes32"
        },
        {
          "internalType": "uint32",
          "name": "movingFundsTxOutputIndex",
          "type": "uint32"
        },
        {
          "internalType": "uint256",
          "name": "sweepTxFee",
          "type": "uint256"
        }
      ],
      "name": "validateMovedFundsSweepProposal",
      "outputs": [
        {
          "internalType": "bool",
          "name": "",
          "type": "bool"
        }
      ],
      "stateMutability": "view",
      "type": "function"
    },
    {
      "inputs": [
        {
          "internalType": "bytes20",
          "name": "walletPubKeyHash",
          "type": "bytes20"
        },
        {
          "internalType": "bytes20[]",
          "name": "targetWallets",
          "type": "bytes20[]"
        },
        {
          "internalType": "uint256",
          "name": "movingFundsTxFee",
          "type": "uint256"
        },
        {
          "internalType": "bytes32",
          "name": "mainUtxoHash",
          "type": "bytes32"
        },
        {
          "internalType": "uint32",
          "name": "mainUtxoOutputIndex",
          "type": "uint32"
        },
        {
          "internalType": "uint64",
          "name": "mainUtxoValue",
          "type": "uint64"
        }
      ],
      "name": "validateMovingFundsProposal",
      "outputs": [
        {
          "internalType": "bool",
          "name": "",
          "type": "bool"
        }
      ],
      "stateMutability": "view",
      "type": "function"
    },
    {
      "inputs": [
        {
          "internalType": "bytes20",
          "name": "walletPubKeyHash",
          "type": "bytes20"
        },
        {
          "internalType": "bytes[]",
          "name": "redeemersOutputScripts",
          "type": "bytes[]"
        },
        {
          "internalType": "uint256",
          "name": "redemptionTxFee",
          "type": "uint256"
        }
      ],
      "name": "validateRedemptionProposal",
      "outputs": [
        {
          "internalType": "bool",
          "name": "",
          "type": "bool"
        }
      ],
      "stateMutability": "view",
      "type": "function"
    }
  ],
  "transactionHash": "0x6f09ffb3703fe9ad53bb75fd2306ac8a9ed52ed497199b93716211624a7e6959",
  "args": [
    "0xFdfce6c5030Cc243fB2F228df19C0facAbC04832"
  ],
  "numDeployments": 1,
  "solcInputHash": "5d4565c4cf67569db2c4b814ccb27dce",
  "bytecode": "0x608060405234801561001057600080fd5b5060405161092b38038061092b83398101604081905261002f91610054565b600080546001600160a01b0319166001600160a01b0392909216919091179055610084565b60006020828403121561006657600080fd5b81516001600160a01b038116811461007d57600080fd5b9392505050565b610898806100936000396000f3fe608060405234801561001057600080fd5b50600436106100b45760003560e01c80639d16340b116100715780639d16340b1461012c578063c4dce65014610144578063d09520f714610157578063e0276b2614610111578063e78cea9214610160578063ef622f511461018b57600080fd5b80630538ac1b146100b95780634e724837146100db5780636b562cec146100b957806370ff6b9c146100fe578063765f28f9146100b9578063996a756b14610111575b600080fd5b6100c1600081565b60405163ffffffff90911681526020015b60405180910390f35b6100ee6100e93660046104f5565b610199565b60405190151581526020016100d2565b6100ee61010c366004610574565b610263565b610119601481565b60405161ffff90911681526020016100d2565b6100ee61013a3660046105e3565b6001949350505050565b6100ee61015236600461063f565b610413565b6100c161025881565b600054610173906001600160a01b031681565b6040516001600160a01b0390911681526020016100d2565b6100ee6101523660046106cd565b6000805460405163e65e19d560e01b81526001600160601b03198616600482015282916001600160a01b03169063e65e19d59060240160e060405180830381865afa1580156101ec573d6000803e3d6000fd5b505050506040513d601f19601f8201168201806040525081019061021091906107a0565b96505050505050508063ffffffff166001148061023357508063ffffffff166002145b6102585760405162461bcd60e51b815260040161024f90610818565b60405180910390fd5b506001949350505050565b6000805460405163e65e19d560e01b81526001600160601b03198716600482015282916001600160a01b03169063e65e19d59060240160e060405180830381865afa1580156102b6573d6000803e3d6000fd5b505050506040513d601f19601f820116820180604052508101906102da91906107a0565b96505050505050508063ffffffff16600114806102fd57508063ffffffff166002145b6103195760405162461bcd60e51b815260040161024f90610818565b836103665760405162461bcd60e51b815260206004820152601e60248201527f4e6f20726564656d7074696f6e20736372697074732070726f76696465640000604482015260640161024f565b60148411156103b75760405162461bcd60e51b815260206004820152601b60248201527f546f6f206d616e7920726564656d7074696f6e20736372697074730000000000604482015260640161024f565b600083116104075760405162461bcd60e51b815260206004820152601f60248201527f526564656d7074696f6e20666565206d75737420626520706f73697469766500604482015260640161024f565b50600195945050505050565b6000805460405163e65e19d560e01b81526001600160601b03198a16600482015282916001600160a01b03169063e65e19d59060240160e060405180830381865afa158015610466573d6000803e3d6000fd5b505050506040513d601f19601f8201168201806040525081019061048a91906107a0565b96505050505050508063ffffffff16600114806104ad57508063ffffffff166002145b6104c95760405162461bcd60e51b815260040161024f90610818565b50600198975050505050505050565b80356001600160601b0319811681146104f057600080fd5b919050565b60008060006060848603121561050a57600080fd5b610513846104d8565b95602085013595506040909401359392505050565b60008083601f84011261053a57600080fd5b50813567ffffffffffffffff81111561055257600080fd5b6020830191508360208260051b850101111561056d57600080fd5b9250929050565b6000806000806060858703121561058a57600080fd5b610593856104d8565b9350602085013567ffffffffffffffff8111156105af57600080fd5b6105bb87828801610528565b9598909750949560400135949350505050565b63ffffffff811681146105e057600080fd5b50565b600080600080608085870312156105f957600080fd5b610602856104d8565b9350602085013592506040850135610619816105ce565b9396929550929360600135925050565b67ffffffffffffffff811681146105e057600080fd5b600080600080600080600060c0888a03121561065a57600080fd5b610663886104d8565b9650602088013567ffffffffffffffff81111561067f57600080fd5b61068b8a828b01610528565b909750955050604088013593506060880135925060808801356106ad816105ce565b915060a08801356106bd81610629565b8091505092959891949750929550565b600080600080600080600060a0888a0312156106e857600080fd5b6106f1886104d8565b9650602088013567ffffffffffffffff8082111561070e57600080fd5b61071a8b838c01610528565b909850965060408a0135955060608a0135915061ffff8216821461073d57600080fd5b9093506080890135908082111561075357600080fd5b818a0191508a601f83011261076757600080fd5b81358181111561077657600080fd5b8b602082850101111561078857600080fd5b60208301945080935050505092959891949750929550565b600080600080600080600060e0888a0312156107bb57600080fd5b875196506020880151955060408801516107d481610629565b60608901519095506107e5816105ce565b60808901519094506107f6816105ce565b60a0890151909350610807816105ce565b60c08901519092506106bd816105ce565b6020808252602a908201527f57616c6c6574206973206e6f7420696e204c697665206f72204d6f76696e6746604082015269756e647320737461746560b01b60608201526080019056fea26469706673582212200c6abc8c44d1bbd83b31670f26c14ff0b9468e40b336275bb863130536483c4464736f6c63430008110033",
  "devdoc": {
    "kind": "dev",
    "methods": {
      "validateRedemptionProposal(bytes20,bytes[],uint256)": {
        "params": {
          "redeemersOutputScripts": "Array of redeemer output scripts",
          "redemptionTxFee": "The redemption transaction fee",
          "walletPubKeyHash": "The wallet public key hash"
        },
        "returns": {
          "_0": "true if valid, reverts if invalid"
        }
      }
    },
    "title": "WalletProposalValidatorStub",
    "version": 1
  },
  "userdoc": {
    "kind": "user",
    "methods": {
      "validateRedemptionProposal(bytes20,bytes[],uint256)": {
        "notice": "Validate redemption proposal"
      }
    },
    "notice": "Minimal stub implementation of WalletProposalValidator contract for local development",
    "version": 1
  },
  "storageLayout": {
    "storage": [
      {
        "astId": 452,
        "contract": "contracts/WalletProposalValidatorStub.sol:WalletProposalValidatorStub",
        "label": "bridge",
        "offset": 0,
        "slot": "0",
        "type": "t_contract(BridgeStub)441"
      }
    ],
    "types": {
      "t_contract(BridgeStub)441": {
        "encoding": "inplace",
        "label": "contract BridgeStub",
        "numberOfBytes": "20"
      }
    }
  }
}